:02000002E0001C
:100000000000042079030E0061030E0063030E005C
:1000100065030E0067030E0069030E000000000078
:100020000000000000000000000000006B030E0054
:100030006D030E00000000006F030E0071030E0040
:100040003D740E0073030E0073030E0073030E0065
:1000500073030E0073030E0073030E0073030E0090
:1000600073030E0073030E0073030E0073030E0080
:1000700073030E0073030E0073030E0073030E0070
:10008000D9850E0041460E0073030E0073030E0067
:1000900073030E0073030E0073030E0073030E0050
:1000A00073030E0073030E0073030E0073030E0040
:1000B00073030E0073030E00000000000000000038
:1000C00073030E0073030E0073030E0073030E0020
:1000D000AD7F0E0073030E0073030E007D6C0E00E7
:1000E00073030E0073030E0069B90E0000000000D8
:1000F0000000000073030E000000000073030E00F8
:1001000000000000000000000000000000000000EF
:1001100000000000000000000000000000000000DF
:1001200000000000000000000000000000000000CF
:1001300000000000000000000000000000000000BF
:1001400000000000000000000000000000000000AF
:10015000000000000000000000000000000000009F
:10016000000000000000000000000000000000008F
:10017000000000000000000000000000000000007F
:10018000000000000000000000000000000000006F
:10019000000000000000000000000000000000005F
:1001A000000000000000000000000000000000004F
:1001B000000000000000000000000000000000003F
:1001C000000000000000000000000000000000002F
:1001D000000000000000000000000000000000001F
:1001E000000000000000000000000000000000000F
:1001F00000000000000000000000000000000000FF
:10020000364937480A1A02D0072291438D463549AC
:1002100035480A1A06D00722914381F30988022241
:1002200082F3148831483249324A00F045F83248A6
:100230003249334A00F040F832483349334A00F03B
:100240003BF833483349344A00F036F833483449F0
:10025000344A00F031F834483449354A00F02CF87B
:1002600034483549354A00F027F8354835490022E9
:1002700000F02DF834483549002200F028F83448C1
:100280003449091A082903DB0022026004300160A6
:10029000314A90471F482049884205D002680430FF
:1002A00003B4904703BCF7E700208646EC460020E5
:1002B00000212A4A9047FEE7884207D0521A05D00B
:1002C000037801300B700131013AF9D1704788424F
:1002D00002D002700130FAE77047000000000420ED
:1002E00000F80320000004200000042070F50E0038
:1002F0001C00002080000020D8030E00D8030E0050
:10030000F4C30E0070F50E001C0000201C0000203D
:10031000E8C40E00E8C40E00E8C40E00E8C40E00F5
:10032000E8C40E00E8C40E00E8C40E00E8C40E00E5
:1003300070F50E00D4F50E00800000208000002033
:1003400080000020DC8C0020DC8C0020DC8C002075
:10035000DC8C0020DC8C0020A1030E0051780E0004
:10036000FEE7FEE7FEE7FEE7FEE7FEE7FEE7FEE765
:10037000FEE7FEE7704700BF1048804710484FF087
:100380000701884385460F4880470F48016841F4BC
:1003900070010160BFF34F8FBFF36F8FFFF730BF66
:1003A0000A480B490B4A884207D0521A05D00378F5
:1003B00001300B700131013AF9D1704775030E001D
:1003C00000000420BD860E0088ED00E0D4C40E00BD
:0803D000080000201C000020C1
:1003D8000020704738B504462A482B4D04F0F8FB36
:1003E8002A4B28481C6004F031FC294BED1AED0813
:1003F8002D0438B9274945F0010000F0B9FC032461
:10040800204638BD244B002140F603020330C3E9DF
:10041800021258601970214B21495960214945F051
:100428000405C3E9021228461F4A20491A6100F050
:100438009FFC05F00BFA8528044601D00028DFD17F
:10044800002005F07BFA04460028D9D103F0BAFE53
:10045800174802F017F904460028D1D1154802F0D0
:10046800D7F904460028CBD11349284600F080FC70
:1004780002F07EF904460028C2D11049284600F04F
:1004880077FCBDE7ACC40E007CC40E000801002058
:1004980014C40E00CCC50E00A81900209419002021
:1004A800D5040E00C9040E003C190020EDC50E004D
:1004B8002CC60E0040C50E0003C60E0010C60E0066
:1004C800011F014804F0EABBACC40E0037B50D4665
:1004D800044618B90A49932004F08DFA1DB9084951
:1004E800942004F088FA01AB2A462146054805F015
:1004F80017F9019A0349044803F05AFA03B030BDCA
:1005080064C50E002319002040C50E0002F030BB60
:10051800083810B506283ED8DFE800F0081E2F3D41
:100528003D3D0400BDE8104002F03AB91A4B1B48A3
:100538001B49C01AC008000440F0030000F018FC72
:1005480005F036FE08B902F029F9164B1B6813B3FB
:100558000120BDE8104018470F4B10481249C01A37
:10056800C008000440F0030000F002FC02F046F965
:100578000C4B1B687BB10220EBE7074B07480B4984
:10058800C01AC008000440F0030000F0F1FBBDE809
:10059800104002F015B910BD14C40E007CC40E0042
:1005A80038C60E00080100204BC60E005DC60E00BE
:1005B80008B503781BB9BDE8084002F0D9BA094A62
:1005C800042101F09BFC58B1074B08480849C01AA0
:1005D800C008000440F00100BDE8084000F0C8BBB6
:1005E80008BD00BF15050E0014C40E007CC40E0023
:1005F80067C60E002DE9F04799B102293ED10122C4
:100608002449254803F0F4F9244A254B25499B1A27
:10061800DB081B040246BDE8F04743F0020000F087
:10062800ABBB1F481D4BDFF86C801F4DDFF88CA05B
:10063800C01AC008000440F0040940F0010498F80A
:100648000010194805F0A0F8074680B9504608F090
:1006580093FFD5E90112154809F0C6FE144804F0C5
:10066800F5FA064660B91349204600F081FB0122DD
:100678004146094803F0BCF90028E0D0BDE8F087FE
:1006880002460D494846033600F076FBC5E9016786
:100698002F70ECE75419002040C50E0014C40E005A
:1006A8007CC40E00E8C40E00A8190020941900208C
:1006B800ACC40E000EC50E0029C50E00FCC30E000A
:1006C8007047000007B5044B0093044A402300F02C
:1006D80032F803B05DF804FBE9060E00B9190020F2
:1006E8002DE9F84389461446B2B10F4B0F4E032546
:1006F800002743F00108224609EB0701002007F014
:1007080073F90744241A48B933782BB14FF47A4067
:10071800C047013D02D13570BDE8F883012333702D
:10072800002CE8D1F8E700BF90C60E00B8190020E9
:10073800704707F08DB9F0B595B01C4616460846C7
:100748000D4604F044FF1A9B0D93CDE9086400247C
:100758002346082205A928460A948DF82C400C94B3
:1007680004F05EFF079B0293BDF81830ADF80C301B
:10077800BDF81A30ADF80E309DF814308DF81140E0
:1007880003F00302012A1DD1BDF81440059EC3F3EE
:10079800C203C4F383148DF81030A20008230EA9F5
:1007A800284604F03DFFC6F3952608AB0093224681
:1007B80002AB0EA9304600F01DFC284604F00BFFE2
:1007C80015B0F0BD022AF8D1BDF81640C3F3C20334
:1007D800A4098DF810300827082C264628BF0826BB
:1007E8003B4632460EA9284604F01AFFA41B08AB64
:1007F80002AA31460EA8374400F060FC002CEBD169
:10080800DBE7000008B5FFF794FF0421064800F075
:100818005BFB002803DA0549412004F0ECF8044B9F
:1008280001225A7108BD00BF04C40E00A4C60E0000
:1008380020000020037813F0040216D003F003030D
:10084800012B03D0022B09D0012070470A680088C9
:100858000232C0F3831002440A60F5E70B6842884D
:10086800023303EB92130B60EEE71046704700006B
:100878002DE9F04F484CDFF8288187B00D46064631
:10088800871C0020009203F021FD23682B60D4E927
:1008980001231344226801339B1AA8F1040BA8F121
:1008A8000809BB4219D3009A0023002A6CD0012200
:1008B80062F3010343F0040366F389132168A26815
:1008C8000A4003320F44002044F82230276003F026
:1008D8000DFD012007B0BDE8F08F0121404604F06E
:1008E80055F9584604F06BF90DF1180A484604F01A
:1008F80066F960684AF8100DA5682840033004EBD3
:1009080080005146FFF796FF02460298002AF4D16C
:1009180005EA000304EB8303811CDB6803930130C1
:10092800054004EB850503F00303012B0291ED68F4
:1009380023D0022B08D0194901924FF4BF7004F05C
:100948005AF8019A154607E0BDF80E309B090333A3
:100958002D0C01EB93030293484604F033F908B1D8
:10096800029B63602946404604F010F9D4E901234C
:100978001344226801339B1A93E7BDF80C30C3F384
:1009880083132D0C0B44E6E7022262F3010343F0C4
:10099800040366F39F5391E7CC1A002001C70E00A9
:1009A800E85A00200D4B0E4840F6FF7244F2180139
:1009B80010B59A6000225A5044F21401C3E900228B
:1009C8005A5044F220015A5404F0BAFD044610B9B2
:1009D800044804F03BFE204610BD00BFCC1A00209E
:1009E800C0C40E0048C70E0030B50A4C71B10A4A9F
:1009F8000A49121BD20800239A4201D1002030BDB7
:100A080031F82350854202D00133F5E7034654F804
:100A18003300F4E714C40E00ACC40E001C00002020
:100A2800094B013903EBC000032909D8DFE801F0BD
:100A38000A0204060420704700797047407970471D
:100A4800002070470220704714C40E00034BD3E9FE
:100A58000030C31A58425841704700BFCC1A0020D2
:100A68002DE9F04385B0FFF7F1FF0646002840F076
:100A78000381824D44F21803E850BFF34F8F686832
:100A8800AC68DFF8108204AF47F8100D204003303F
:100A980005EB80003946FFF7CDFE009B18B1D8F86A
:100AA8000020002A61D004EA0302991C013305EBF7
:100AB8008202234005EB8303D268DB68029302F0CD
:100AC8000303022B0192009167D1BDF806306C48F0
:100AD8004FEA9318B8F1500FC14628BF4FF050099C
:100AE80069F38F1309F10801ADF8063004F040FDF1
:100AF8000746002800F0AA8004F069FD01A9002338
:100B08000822384604F076FD009924EA01060136E9
:100B1800B600B1453AD95FFA89F9A6B3F6B2A9EB9E
:100B28000609214003315FFA89F4B146554E05EBB9
:100B3800810108234A46384604F05CFD36B109F1C4
:100B4800080322463146384604F054FD009B08F15C
:100B5800030803EB9803009344F21803EB58002BA7
:100B68004FD144F21003EC585EE02A689A4204D848
:100B78006A60304605B0BDE8F08304EA030003303C
:100B880005EB800086E73F493446D2E72140033130
:100B980008234A4605EB8101D5E7012B56D1BDF85C
:100BA80004303748C3F38311062928BF062161F3AF
:100BB800891302318900ADF8043004F0D9FC0746E6
:100BC800002843D004F003FD0023082201A9384679
:100BD80004F010FD0026BDF80420C2F38312B31CF4
:100BE80096424FEA8303B7D200994A1C2140033149
:100BF800009205EB81010422384604F0FBFC013623
:100C0800E9E7384604F0E7FCFFF720FF80F0010031
:100C1800C6B2AEE7E3685B7923B1236839461B683F
:100C280020469847E3681C68002CF3D1384604F046
:100C3800D2FC204603F04AFB44F21803EB580BB9E8
:100C4800009B6B60002003F051FBDDE744F21003CA
:100C5800EC5854B90C4B0D480D49C01AC008000493
:100C680040F0020000F084F8CEE7236820469B6835
:100C78009847E3681C68ECE700267AE7CC1A00205E
:100C8800C0C40E00D81A002014C40E0024C40E00DC
:100C980054C70E00E45A00202DE9F74F2F4C804628
:100CA8000F46914601A9012218469B46D4F808A090
:100CB800FFF7DEFD00283DD0019D0026A91C5E45FA
:100CC80006EB010241D10021254803F029FF80F3FA
:100CD800100B244B244A4FEA18499B1AB9EBD30F3F
:100CE80004D3224940F2A31003F085FE6B1C03EAEB
:100CF8000A0304EB830349EA0B42DA6005EA0A03B4
:100D08000333012114F8232068F3C50204F82320D3
:100D180034F8232066F3891224F8232054F823207A
:100D280067F39F2244F8232061F301026FF38202E4
:100D380004F8232044F22003E35C1BB1FFF790FE84
:100D48000028FBD103B0BDE8F08F0AEA020204EBE9
:100D5800820259F82630D3600136B0E7CC1A002059
:100D6800E85A0020ACC40E0014C40E0001C70E00DF
:100D780000231A46FFF790BF13B502AC012344F8CD
:100D8800042D2246FFF788FF02B010BD07B5CDE954
:100D9800002302236A46FFF77FFF03B05DF804FBD8
:100DA8001FB5CDE90123069B039301AA0323FFF78F
:100DB80073FF05B05DF804FB1FB5CDE90023069B62
:100DC8000293079B03936A460423FFF765FF05B068
:100DD8005DF804FB7FB5CDE90123089B0393099BCC
:100DE80004930A9B059301AA0523FFF755FF07B053
:100DF8005DF804FB2DE9F3478046314CD01C8A4648
:100E0800174601A900228008A568FFF731FD0028D0
:100E180040D0DDF80490A66809F10200019001367F
:100E28002840361AB6000330B74204EB80003CD89D
:100E38003A4651460AF093FE0021224803F070FE1C
:100E480080F3100009F101032B4004EB83034FEA00
:100E5800184242EA0040D86005EA0903033304EB6C
:100E6800830214F8231068F3C50104F8231034F83A
:100E780023106FF38F1124F82310518867F38F1113
:100E8800518014F82320022161F301026FF38202DA
:100E980004F8232044F22003E35C1BB1FFF7E0FDD4
:100EA8000028FBD102B0BDE8F087324651460AF06F
:100EB80056FEBA1B0AEB060104F10C00BAE700BFA4
:100EC800CC1A0020E85A002030B544F210030F492C
:100ED800CA580023144644B9C46823715AB944F265
:100EE800100548512260184630BDE46825799D42B6
:100EF80006D02468EFE7D268116821601060F2E735
:100F080001330A2BE6D14FF0FF33ECE7CC1A00206F
:100F180038B50A4A44F2100344F22001D458012398
:100F280053541D4604B938BDE3685D7123682046F3
:100F38005B689847E3681C68F4E700BFCC1A002098
:100F4800037A052B10B50C460FD0437A23B1084A13
:100F58000849204603F0D8FE0749204603F0D4FE8E
:100F68002046BDE8104003F0BDBE002AF8D0F3E7E4
:100F78009FC70E00A4C70E00C4C70E00C38873B570
:100F880004460D4633B1144A00921449144A2846BF
:100F980003F0BAFE217A05291CD0637A4BB1A088E8
:100FA800FFF73EFD0F4B104953F82020284603F069
:100FB800ABFE227A0D4BA08853F822600021FFF780
:100FC80013FD0B4903463246284602B0BDE870407F
:100FD80003F09ABE02B070BD9FC70E00AFC70E00E7
:100FE800A7C70E006CC70E00A4C70E00D4C70E001A
:100FF800C7C70E002DE9F04385B01F460C9D00239E
:1010080006460C46904695F80C902B7329463846B0
:10101800FFF7B4FFB8F1060F09D8DFE808F00412AB
:10102800181F283340003146284603F06DFE002281
:1010380029463846FFF784FF85F80C9005B0BDE8CF
:10104800F08322683146284603F05EFEEFE7D4E9D4
:1010580000233146284603F057FEE8E7A3680093CB
:101068003146D4E90023284603F04EFEDFE7E36863
:101078000193A36800933146D4E90023284603F07E
:1010880043FED4E723690293E3680193A3680093BE
:101098003146D4E90023284603F036FEC7E76369E2
:1010A800039323690293E3680193A368009331468D
:1010B800D4E90023284603F027FEB8E708292DE9DC
:1010C800F84F80460E4617461C4636D8002593F83A
:1010D8000C901D7319461046FFF750FFDFF87CA0EF
:1010E800DFF87CB0AE422AD918F8052059462046C8
:1010F80003F00AFE0135082DF4D11649DFF864B073
:10110800204603F001FE0025AE421DD918F805A0BF
:1011180050460AF0C5FC002814BF52462E225946F4
:10112800204603F0F1FD0135082DEDD101222146BD
:101138003846FFF705FF84F80C90BDE8F88F514654
:10114800204603F0E1FDD5E70349204603F0DCFD26
:10115800E9E700BF9AC70E0098C70E0096C70E00B1
:1011680090C70E009CC70E0003682F2B10B50446CD
:1011780004D907494FF4E87003F03DFC23681F2B9E
:1011880083BF03F01F03236002484FF0A04010BD47
:101198006DC80E0000030050032813B5044603D998
:1011A8000849472003F027FC074B02A81B5D40F8BD
:1011B800043DFFF7D9FF019A01239340C0F8083591
:1011C80002B010BD39C80E0069C80E0008B500206D
:1011D800FFF7E2FF0120FFF7DFFF0220FFF7DCFF48
:1011E8000320BDE80840FFF7D7BF0000032813B568
:1011F800044603D90C495F2003F0FDFB0B4B02A802
:101208001B5D40F8043DFFF7AFFF0199D0F80435A6
:1012180001228A4022EA03011340C0F80815C0F8E9
:101228000C3502B010BD00BF39C80E0069C80E00E9
:10123800F7B5C207054647D54FF08043D3F8404677
:1012480014F001042FD04FF01023D3F8043303F027
:101258000703072B26D1244B0122C3F80425D3F812
:101268000024002AFBD04FF01021D1F8042322F0EB
:10127800070242F00402C1F804230022C3F804253F
:10128800194AD2F80034002BFBD0BFF34F8F17490F
:10129800174BCA6802F4E0621343CB60BFF34F8F69
:1012A80000BFFDE70024134F0326E35D0093684663
:1012B800FFF75AFF009B013403F5E073042C40F854
:1012C8002360F2D1FFF782FFAB070BD502A82623D4
:1012D80040F8043DFFF748FF019B03F5E0730C223B
:1012E80040F8232003B0F0BD00E0014000ED00E02D
:1012F8000400FA0569C80E000023C0E90232C0E9FB
:1013080000118B781A44026191F903301A44426142
:101318000878003018BF0120704738B54268117846
:101328000346002938D002F10C014160147B2CB926
:10133800C2680168FFF7E0FF204638BD5078117990
:1013480000F03005302D14D1547B04F03004302CDB
:101358000FD190781969091A19610021907B084406
:1013680019690144196192F90F201144596101204A
:10137800E3E700F0F004202C08D1507910FB01F1CC
:10138800002DEBD1986801309860E7E700F0C000C5
:10139800802808BF0421F3E70846CEE770B5456802
:1013A80004460E4663681A78B24204D15B7803F0AB
:1013B8000F03082B07D12046FFF7AFFF6368AB4246
:1013C800F0D1002070BD0120FCE743681A44426058
:1013D80011B101399A4201D10120704713F8010B6C
:1013E80001F8010FF6E7836810B504460BB9002031
:1013F80010BD0368012298470028F8D0A368013B74
:10140800A360F5E72DE9F3410F460DF1070180468A
:10141800FFF7E9FF064620B90026304602B0BDE8CE
:10142800F0819DF80740220613D504F07F040725B4
:101438000DF107014046FFF7D6FF0028ECD09DF8D4
:10144800072002F07F03AB401C43130605F1070594
:1014580001D43C60E1E7232DEAD1DDE770B54568AA
:101468006A7802F00F06082E86B003461FD103697A
:101478001C6800260CB906B070BD236862689D68B8
:10148800267329466846FFF737FF6368049304F11B
:101498000C0305936B7803F0C003802B08BF231D52
:1014A800684608BF0493FFF7D9FFA468E2E712F083
:1014B800C0011CD102F0300010280AD15A691170FD
:1014C800072EAC68186909D10146204600F017F8C4
:1014D800D1E79006F4D55B691970CCE72A792146E3
:1014E80014B10AF03CFBC6E70AF062FBC3E78029A7
:1014F800C1D10069002192060160BCD5EBE77FB538
:101508000A4601466846FFF7F7FE30B16846FFF71E
:10151800A5FF6846FFF701FFF7E707B05DF804FB92
:1015280030B5044685B01546A9B90268114B9A42F0
:1015380011D0102D06D82A4669462046FFF7F0FF3D
:1015480005B030BD102269462046FFF7E9FF0028A4
:10155800F6D0103DEDE7A368AB4201D20020EFE7DB
:1015680023682A46204698470028F7D0A3685D1BC1
:10157800A560E5E7D3130E00F7B50E4601A90746A7
:101588001546FFF73FFFA8B1019A0123D3184FF082
:10159800000404D2717801F0C001802901D12046ED
:1015A80008E031799942FAD329463846FFF7B8FF5F
:1015B800019BEC5403B0F0BD73B50D4601A9064676
:1015C8001446FFF71FFF88B1019AFF2A10D86B78DD
:1015D80003F0C003802B0BD02979531C994207D301
:1015E8002146304601F8012BFFF79AFF02B070BD83
:1015F8000020FBE710B5034C82600022C0E90041DF
:10160800C26010BDD3130E002DE9F04F824685B09D
:101618000D464FF000084FF0000900240DF10F01AE
:101628005046FFF7E0FEF8B19DF80F1001F07F0279
:101638005FFA82FB4FF0000CCDE900BC009AA4F1E0
:10164800200CC4F1200322FA03F302FA0CF71F431B
:101658001346A34048EA03080B0649EA070904F1C0
:10166800070404D4C5E9008905B0BDE8F08F462C0D
:10167800D4D10020F8E773B50D4669461446FFF744
:10168800C3FF68B12B79082B0CD1DDE90056C4E9FA
:101698000056DDE90023B34206BFAA42012000201C
:1016A80002B070BD042B05D1DDE9000120600546BC
:1016B8000026EEE7022B03D10098208085B2F7E7D9
:1016C800012B05D1DDE90001207000F0FF05EFE7EF
:1016D8000020E5E737B50D4669461446FFF794FF45
:1016E80030B12A79082ADDE9003103D1C4E9003193
:1016F80003B030BD042A18464FEAE37108D12360CD
:101708001A460B468B4206BF824201200020EFE7B3
:10171800022A04D11BB223801AB2D317F2E7012A96
:1017280003D15BB223705AB2F7E70020E0E7F7B5C0
:101738000C46002119702170116001A90746154651
:101748001E46FFF75FFE30B9BB6813B9012333703B
:10175800002003B0F0BD01990029F7D0CB0801F0B3
:1017680007012B602170F4E713B5044605291FD83B
:10177800DFE801F0030F151E1E1C012201A92046F7
:10178800FFF7CEFE18B19DF90430002BF5DB02B04F
:1017980010BD082200212046FFF7C2FEF7E701A985
:1017A800FFF730FE0028F2D0019AF3E70422F1E7B0
:1017B8000020ECE773B50D4601A90446FFF722FEA9
:1017C800064618B90026304602B070BD94E80F00EE
:1017D80085E80F0001998A42F4D3A960A3685B1ACF
:1017E800A360F0E72DE9F04155686B7813F0C00E5F
:1017F80088B006468C46144604D0BEF1400F68D027
:10180800002544E003F00F025C4903F03003102B7D
:1018180051F822701DD006D8002BF1D12269294633
:10182800B847054633E0202B17D0302BE8D1636941
:1018380029781970072A0AD1636820691A797146CC
:101848000AF0B6F9636821699868FFF758FE2269BB
:101858003CE0636901221A70E0E7BCF1020FD4F89A
:10186800148027D1042A25D804A9FFF7A3FF054629
:101878000028C5D0069B2BB1616898F800304A79DA
:101888009A4208D8059B7360069B002BB8D128465E
:1018980008B0BDE8F0810879226900FB032204A89A
:1018A800B84728B198F80030013388F80030E1E7EC
:1018B8000546E7E798F8003021692A7902FB031208
:1018C800697999429CD9013388F8003061683046BB
:1018D800A6E717693B6807F1040813B9FFF744FF47
:1018E8009FE7022913D104A9FFF764FF002887D0D6
:1018F8003B686168424604A89847054600283FF4BB
:101908007FAF069B002BF3D1059B7360BFE70129CE
:101918002BD009D305297FF473AF04220DEB020104
:10192800FFF7FEFD042525E0002501AB5919013517
:101938000B2D3FF465AF01223046FFF7F1FD00287B
:101948003FF45EAF01AB2B4413F9013C002BECDBF9
:101958000B4B049301ABCDE90535002307934246B1
:101968003B68616804A898475BE7082201A9FFF76C
:10197800D7FD08250028EBD142E700BF98C80E0024
:10198800D3130E002DE9F04F91B00446002604A8A9
:10199800CDE90266FFF7B0FCA3683BBBDDE905347F
:1019A80004A85D78FFF7B9FC0028F7D115F0300FCF
:1019B80003D1059B1B7803B10134002C00F0A980EA
:1019C8006309002202A9934240F09C8010AA02EB0E
:1019D800830304F01F04C4F120044FF0FF3053F8D0
:1019E800383CE040C31A584258410DE00DF103035A
:1019F80001AA0DF102012046FFF799FE38B99DF8BA
:101A08000330002BCAD1002011B0BDE8F08F019936
:101A180004A8FFF7C3FC002850D1019BB3427FD331
:101A2800059D059A537803F00F03082B73D004A87B
:101A3800FFF773FC059B9D42F3D14FF0FF36019FE2
:101A4800B7426DD3089B9DF80290D4F808801D68B2
:101A58004FF0010AA368002D5FD098459CD12B68F0
:101A6800D3F800B0BBF1000F08D04B463A462946E0
:101A78002046D8470028C6D0AD68EBE7D3F808B0B1
:101A88009BF800309F42F7D16A6859460AA8FFF7C9
:101A980033FC6B680E9305F10C030F939BF8013030
:101AA80003F0C003802B04BF2B1D0E930AAA85F8F0
:101AB8000CA049462046FFF795FEDBE7059B5B78BF
:101AC80013F0300F0FD1069A3F2A0CD8510910ABEA
:101AD80003EB810102F01F020123934051F8382CD7
:101AE800134341F8383CE5689DF802201DB104AB6A
:101AF80001992046A84704AA9DF802102046FFF73E
:101B080071FE12E051F8225001357FF47DAF0132A9
:101B180059E7012078E7167891E798457FF43CAFBC
:101B28009DF802102046FFF71FFE00287FF434AF0F
:101B380069E770B50C460646154611462046FFF77C
:101B4800DEFC2A4621463046BDE87040FFF71ABF42
:101B5800F0B585B00C468D68694607461646FFF70E
:101B680029FE68B1A06858B1637803F03003202BD0
:101B780032462946684605D1FFF7DBFF019B7B60AB
:101B880005B0F0BDFFF7FEFEF8E72DE977480E46F1
:101B98006946FFF739FD88B1DDE90023002502F029
:101BA80001045FEA530C4FEA320B54EA050308D0EC
:101BB8006FEA0B026FEA0C03C6E9002303B0BDE825
:101BC8007088C6E900BCF9E737B50D466946144682
:101BD800FFF7DBFF68B12B79082B0CD1DDE9000199
:101BE800C4E90001DDE900238B4206BF82420120DF
:101BF800002003B030BD042B03D100982060C1172A
:101C0800F0E7022B04D1BDF90000208000B2F6E70E
:101C1800012B04D19DF90000207040B2EFE70020AD
:101C2800E7E713B504220C460DEB0201FFF778FC39
:101C380008B1019B236002B010BD1146FFF7F1BF48
:101C480013B508220C466946FFF76AFC18B1DDE9AE
:101C58000023C4E9002302B010BD1146FFF7F0BF0E
:101C680038B52022044608300D4609F078FF2022B6
:101C7800A91804F1280009F072FF002038BD0000FF
:101C88002DE9F3411B4D98461B4B036004460E4655
:101C980028460121174602F043FFBFF35F8F20BBA0
:101CA80000F0ECF83B46089ACDF8008006F10801F0
:101CB800204608F0FBFC044600F0EEF82B68012BE8
:101CC80003D00E49932002F096FEBFF35F8F0023E6
:101CD8002B606CB10A4A48F2425348F216509442BB
:101CE80008BF184602B0BDE8F08148F20450F9E791
:101CF8002046F7E7886B0020DD55AABBC8C80E0050
:101D08008408F0000C4B98420DD006D820B1013B56
:101D180098420BD048F216507047084B984208D0AA
:101D28000D339842F6D148F20350704748F20150FB
:101D3800704748F2025070470102F0000202F000BA
:101D480008B5083008F01CFDBDE80840FFF7DABF09
:101D580010B5064C2268012A03D00549932002F0E9
:101D68004AFEBFF35F8F0023236010BD886B0020FD
:101D7800C8C80E0013681F2B70B505460E461446DA
:101D880019D901210F4802F0CBFEBFF35F8FA8B924
:101D980000F074F8314605F1080008F063FD0546C7
:101DA80000F07AF8FFF7D4FF2846FFF7ABFF08B931
:101DB8002023236070BD48F21450FBE748F204501A
:101DC800F8E700BF886B00202DE9F04107460E4672
:101DD80017480121144602F0A3FEBFF35F8F18BB1A
:101DE80000F04CF8DFF84C800837B4F5805F2546E2
:101DF80028BF4FF480552A463146404609F0AFFEC9
:101E08002A464146384608F0D5FC641B2E44054650
:101E180008B9002CE9D100F03FF8FFF799FF2846F0
:101E2800BDE8F041FFF76EBF48F20450BDE8F0810D
:101E3800886B0020885B0020024B0020C3F8000557
:101E4800704700BF00A0025038B50A4B00251D603E
:101E5800BFF35F8F084C0123C4F8003508F032FD4A
:101E6800C4F8005520B1052848F2035018BF0320D4
:101E780038BD00BF886B002000A00250044B01222F
:101E8800C3F80025034B4FF480625A60704700BFC7
:101E980000A0025000E100E0044B0022C3F8002536
:101EA800034B4FF48062C3F88420704700A00250AF
:101EB80000E100E012F0030310B511D1094C2260D3
:101EC8004C1CE400A4B22244074C2260074A137059
:101ED800074A1370074A1080074A1846118010BD38
:101EE8000720FCE7946B0020906B00208C6B00208F
:101EF8009C6B0020986B00209A6B00202DE9F0471E
:101F0800284D2B888B4206460C46174645D30020A1
:101F180002F0DCF9244B254A254819781378008803
:101F2800DBB2834238BF0133C9B234BFDBB200230E
:101F380099422CD092F800801378DBB2984286BF81
:101F48000133DBB200231370002002F0CFF94FF603
:101F5800FF73984523D0DFF860A0DAF800304FEA25
:101F6800C80903EB090243F838709EB194B1114BCC
:101F780028881B68224608FB0030314609F0EFFD2F
:101F8800DAF800304B4400209C80BDE8F0874FF61B
:101F9800FF78D9E700209080F7E70920F5E70420CB
:101FA800F3E700BF986B00209C6B00208C6B00202F
:101FB8009A6B0020906B0020946B0020F8B5124CAF
:101FC800124D264622782B789A4200D1F8BD237804
:101FD8000F48104A078812680F48DBB219B202EBA3
:101FE800C10C006852F83120BCF8041003FB07004C
:101FF80090470A4A23781288DBB29A4286BF013397
:10200800DBB200233370DDE79C6B00208C6B002073
:10201800986B0020946B0020906B00209A6B002036
:1020280040684B6898428CBF002001207047000030
:1020380037B505460C460A4801A902F0FCFC60B118
:102048000570446001A9064802F01FFD18B1054853
:1020580002F0E2FA002003B030BD0420FBE700BF25
:10206800006C00202800002038B5C36804461BB95E
:102078001149872002F0BFFC104B1B7813B90025CB
:10208800284638BD237D002BF9D0A36803B92375F2
:10209800D4E903309847A368002BF0D0227D02F0E2
:1020A800FF05002AEBD062680548134463602146A7
:1020B80003F0D6FAE4E700BF2EC90E00A46B002097
:1020C80018C90E002DE9F743054602F097FA0028D3
:1020D80058D10021284602F095FAB8B1614C23681E
:1020E800A3B1284602F094FA23685B68C01A20F06E
:1020F8007F40B0F5960F04D35B494FF4887002F027
:102108007AFC2068FFF7B0FF0023236001A9574835
:10211800DFF85081564EDFF8609102F0C6FC0446A5
:10212800002C4ED1524F4F4CDFF85081384603F007
:10213800C3FA002800F08B80426823685B68216836
:1021480051B12168D9B19A4219D223681B7D1BB1BC
:102158002168384603F084FA384603F09DFA4FF4B4
:102168009603064642680021404602F0D5F9002849
:1021780062D1236813B9284602F0B2F9266003B089
:10218800BDE8F083374A13682BB113685B6812689F
:1021980023F07F435360364803F08EFA0446002844
:1021A80097D06368B3F1807F06D22046FFF75CFFC3
:1021B800204603F08DFAF1E7636823F07F436360FC
:1021C800F6E72378012B2AD009D3022B1DD100244E
:1021D800304603F061FA002840D00475F8E76368D8
:1021E8001A7D92B901221A7528465F6802F010FA22
:1021F800381A484588BF6268616882BF536823F00F
:102208007F435360304603F02BFA01A9174802F0C8
:1022180077FC01A9154802F048FC044680E7D8F885
:1022280000306168994208BF0023304608BFC8F8EB
:10223800003003F059FAE8E70D2803D13046FFF7DC
:1022480013FF73E70849C22002F0D5FB6EE7236845
:10225800002B94D1284602F051F990E7054B012252
:102268001A70D2E7106C00202EC90E00006C0020F6
:1022780018C90E00A46B0020FFFFB400280000203E
:1022880013B50E4B0E4918680190082358220D48C3
:1022980002F0BEFB044668B90B4A0C4801A902F0DB
:1022A80097F8044630B90121084802F0A3F9084B11
:1022B80001221A70204602B010BD00BF14C90E00DA
:1022C800A86B0020006C0020CD200E002800002004
:1022D800A46B002070B50C461546064620B90A497D
:1022E80040F2EF1002F087FB35B94FF4F870064959
:1022F80002F081FB072070BD621E336854425441CE
:10230800DD609C600020F6E72EC90E0070B50D4612
:102318001646044620B90E4940F2FF1002F06BFB46
:10232800B5F5350F10D2237D83B92661094802F02F
:102338006FF9A3682844606003B1A56021460020B6
:10234800BDE87040FFF774BE072070BD0020FCE7B1
:102358002EC90E002800002010B5044620B90649F1
:1023680040F21A2002F047FB002323752146012082
:10237800BDE81040FFF75CBE2EC90E00014802F010
:1023880047B900BF28000020024B5B6803B118471B
:10239800704700BF146C0020024B01465A68186849
:1023A800104700BF686C00200378052B0CD1084A41
:1023B800D2F88434D2F8802412F0FF0F04D1054AF1
:1023C800DBB2052B08BF1046034B1B68184700BF3C
:1023D8000070024048CA0E00146C0020FFF7E4BFEA
:1023E80038B50D46044620B9064940F2431002F0BC
:1023F80002FB6378AB4283BFA07840190019002024
:1024080038BD00BF7FC90E0038B50D46044620B957
:1024180006494FF4887002F0EEFA237AAB4283BF84
:10242800093405EB45056019002038BD7FC90E0049
:1024380070B50D46044620B90D4940F20F1002F060
:10244800DAFA636823B90A494FF4887002F0D3FABC
:1024580063681B6823B9064940F2111002F0CBFAF1
:102468006368294620461B68BDE87040184700BFCE
:10247800FEC90E0008B520B1044940F27B2002F0E5
:10248800BAFA0348BDE80840FFF78EBFFEC90E0040
:102498004CCA0E0010B5044620B9044940F2432046
:1024A80002F0A9FA2368186810BD00BFC4C90E005D
:1024B80000F00F0310F0800F10B51CB20AD0082BE3
:1024C80004D909494FF4CC7002F095FA074800EB9B
:1024D800C40010BD082B04D903494FF4CF7002F093
:1024E8008AFA0348F3E700BFFEC90E00206C0020FB
:1024F800686C002070B50D460646FFF7D9FF044604
:1025080005604DB9730604D105494FF4E17002F036
:1025180072FA0023636070BD6B681B68FAE700BF3E
:10252800FEC90E0001280AD006D3022809D00649A0
:1025380040F2622002F05FBA0448FFF735BF044852
:10254800FBE70448F9E700BFFEC90E003CCA0E00CD
:1025580040CA0E0044CA0E0038B5831EDBB2062BF3
:1025680098BF194A194C98BFD25C2378A3F102038B
:10257800DBB288BF0022062B9ABF1349CB5C00232D
:102588009342054603D0A2B1114803F077F9022D12
:1025980001D0082D10D101232278022A01D0082A5F
:1025A8000CD101229A4202D053B103F04FFE25709C
:1025B80038BD03F09FF9EAE70023EDE70022F1E7D1
:1025C80003F03AFEF3E700BF78C90E00B96C0020AB
:1025D800300000202DE9F04F87B006AC002644F803
:1025E800106D05468946924698466B6800225F68DA
:1025F800294601232046B84740B98DF806000490C3
:1026080004460746BE4203D805202AE00136ECE717
:102618006B680DF10602D3F804B02946012304A81B
:10262800D8476B680DF10702D3F804B02946012397
:1026380004A8D8479DF807304B459DF8063015D1BA
:10264800544511D1109A136088F8003088F8019029
:102658006A68023B5468294608F1020204A8A047A8
:10266800002007B0BDE8F08F0134E4B26A68023B8D
:10267800D2F804B02946002204A8D8479DF80630AD
:102688001F44BFE72DE9F341054603F0D9F820B907
:102698002D4940F2313002F0AEF92C4803F012FE19
:1026A8000446002837D12A4B18702A4B18602A4B49
:1026B800014618604822294809F07AFA482221463A
:1026C800274809F075FA274B4DBB274A1D72C3E905
:1026D80000251A680AB9244A1A60002003F02EF966
:1026E80018B1852801D005F025F8DFF8808000248E
:1026F80021464046FFF788FE651CEDB20746F8B94B
:1027080002A90B2301F8043D1848FFF791FE04467F
:1027180008B103F067FC204602B0BDE8F08195E8F7
:10272800070083E80700D4E741460078FFF7E2FE98
:10273800F1B23846FFF754FE01360028F4D1D7E746
:1027480000262C46F4E700BFFEC90E00E5230E0064
:10275800B96C0020B06C0020B46C0020206C002004
:10276800686C0020146C0020792B0E0008CB0E003A
:1027780010B503F015FD08B9082010BD03F018FDC9
:1027880004460028F8D1044803F0EFF80028F4D0F4
:1027980004F0D0FF2046F0E738CA0E0003F032BC40
:1027A80008B503F00FFD20B1044940F2D13002F022
:1027B80022F9BDE8084004F067BB00BFFEC90E005F
:1027C80008B503F0F5FC20B90A494FF4767002F019
:1027D80012F94FF08043D3F83824920704D50648FD
:1027E800BDE80840FFF7E0BDD3F83824D107F2D49C
:1027F80008BD00BFFEC90E004DCA0E0007B502A8ED
:10280800822300F8043DFFF7CFFD03B05DF804FB19
:102818002DE9F341044620B93B4940F26A5002F0E1
:10282800EAF8636823B9384940F26B5002F0E3F8DC
:1028380063681B6823B9344940F26C5002F0DBF836
:1028480023681B6823B1304940F26D5002F0D3F879
:1028580003F0AEFC30B12C4940F2715002F0CBF8D5
:10286800002617E003F09CFC0028F9D1F3E7007874
:10287800FFF71EFE036808F1010823B1112026E0C6
:102888004FF000083E465FFA88F12846FFF7A8FD9A
:102898000028ECD131462046FFF7B6FD771CFFB281
:1028A80005460028ECD129462046FFF7ADFD6E1CF1
:1028B800F6B28046D0B9154D134E2B68CBB902A994
:1028C8000B232C60204601F8043DFFF7B1FD02B050
:1028D800BDE8F08121460078FFF70CFEF9B24046CA
:1028E800FFF77EFD01370028F4D1DCE700273546E5
:1028F800F4E7A34204D1314640F2975002F07BF846
:102908002B681D68D9E700BFFEC90E00B06C002017
:10291800024B1878003018BF01207047B86C0020AF
:1029280000F00F03072B10B5044604D803F0E6FFA8
:10293800204604F0A3FB2046BDE8104004F04CBB41
:1029480004F014BB014B1868704700BFB06C00203E
:102958002DE9F8430E4B1C6880460F46ACB194F83D
:1029680008900026F5B24D4504D32046FFF792FDA6
:102978000446F3E729462046FFF746FD037843451A
:1029880006F10106EED107B13D702046BDE8F88397
:10299800B06C00201146FFF74BBD00F00F03082B69
:1029A80010B50C4608D8FFF783FD006820B1214612
:1029B800BDE81040FFF73CBD102010BD38B5074BEF
:1029C8001C68054604B938BD29462046FFF730FD86
:1029D8002046FFF75FFD0446F4E700BFB06C002017
:1029E80038B5084B1C6805460CB9062038BD294681
:1029F8002046FFF71DFD0628F8D12046FFF74AFDBF
:102A08000446F1E7B06C002038B504460D4603F0E3
:102A1800B8FC48B1054B1B78022B05D12946204646
:102A2800BDE8384003F0BABC082038BDB96C0020B6
:102A380038B504460D4603F0A4FC48B1054B1B7895
:102A4800022B05D129462046BDE8384003F02CBDAD
:102A5800082038BDB96C002043689B6870B50546EE
:102A68000E4614469BB92B7AB34204D20F4940F262
:102A7800F92001F0C0FFB4B931462846FFF7C4FC7D
:102A880046780546E1B28E4205D8002002E0984714
:102A98000628E8D070BD2846FFF7A2FC0078FFF7AB
:102AA8003FFF0134EEE70720F4E700BFFEC90E0040
:102AB8004368DB6870B504460D4603B19847237A2E
:102AC800AB4204D20B494FF4467001F094FF2946FB
:102AD8002046FFF799FC467805460024E1B28E426D
:102AE80000D870BD2846FFF77BFC007804F03EFA5A
:102AF8000134F3E7FEC90E0043681B6903B11847A8
:102B080018467047F8B50D4B0D4E1C6804B9F8BD52
:102B1800277A0025E9B2B94204D32046FFF7BAFC68
:102B28000446F3E700222046FFF796FF20B131461E
:102B380040F26A7001F05FFF0135EBE7B06C0020EE
:102B4800FEC90E00094B70B51C6804B970BD267A21
:102B58000025E9B2B142204603D3FFF79BFC0446A7
:102B6800F3E7FFF7A5FF0135F3E700BFB06C0020DE
:102B780038B58C4B1B68054623B98B4940F2254074
:102B880001F039FF01F0C2FB062804D8864940F25B
:102B98002C4001F030FF2C78092C20D023D8032CAE
:102BA80000F0C08012D8012C00F0AA8040F2918079
:102BB8000320FFF7D1FC0220FFF7E6FB2846FFF7CA
:102BC800FDFE2846BDE83840FFF7E6BB052CF8D0E7
:102BD800C0F0B780062C00F0C380082C13D1204623
:102BE800FFF7D2FB99E0812C14D005D80F2CF6D032
:102BF800802C4AD00A2CF1E7832C52D027D3842C7E
:102C080058D0852CDDD0684940F22650BDE83840C0
:102C180001F0F1BE6548FFF7BFFB6448FFF7CEFE41
:102C28000D20FFF7B1FBFFF78DFF00F0FAFF604BB7
:102C38001B6853B95F4B187A00F0010003F076FA6D
:102C48000120BDE83840FFF787BC0120F4E7FFF713
:102C580079FF04F0F1F80020FFF77EFC5648FFF7F3
:102C6800ADFE5548FFF798FB0E20FFF78DFB534B41
:102C78001B78023BDBB2062B3AD8514AD35C002BB7
:102C880036D0BDE8384002F035BE4C4B1B78062BD9
:102C980005D0072B01D0052B2AD10220D1E7082027
:102CA800CFE7464B1B78032B22D104F029F9F8B162
:102CB8000420C6E7414B1B78032B05D104F020F90B
:102CC80010B10420FFF748FC03F08AFA80B106200F
:102CD800B7E73A4B1B78032B01D0082B02D13948B0
:102CE800FFF746FF0020FFF74FFB314B1C6804B984
:102CF80038BD20462946FFF79BFB23685C68F6E74A
:102D0800FFF720FF00F084FF0220FFF725FC204694
:102D1800FFF73AFB2846FFF73FFB2846BDE8384057
:102D2800FFF74CBE254B1B78082B06D10220FFF776
:102D380013FC03F095FA0320EAE70520FFF70CFCE3
:102D4800F9E70320FFF720FB1F48FFF725FB1E4884
:102D5800FFF734FE194B1B78062B9ED1072070E72E
:102D6800A878FFF7A5FB0368044623B90E4940F28B
:102D7800025001F040FE636823B90B4940F203504A
:102D880001F039FE63682068294698470028AFD0CB
:102D9800A87800F00F03013B062BA9D8BDE83840FE
:102DA80003F070BDB06C0020FEC90E004ECA0E00C4
:102DB800B46C0020146C00204FCA0E00B96C0020BF
:102DC80078C90E0050CA0E0051CA0E00CA699A424C
:102DD80010B543600CD38C690460086F1844086709
:102DE800D01A1C44C86100308C6118BF012010BD86
:102DF80001F1280202608B670020F8E738B50D461C
:102E0800044620B906494FF4887001F0F4FD237A8E
:102E1800AB4283BF093405EB45056019002038BD76
:102E280070CA0E0038B50D46044620B9064940F26E
:102E3800431001F0E0FD6378AB4283BFA0784019EE
:102E48000019002038BD00BF70CA0E0008B5012166
:102E5800FFF7D4FF0121FFF7E5FF007808BD000068
:102E68002DE9F8431746C94A99460B7A13700E465E
:102E78000546904620B9C64940F20F3001F0BBFD27
:102E88002B68B3F5517F00F0C58200F2CF8040F285
:102E98002632934200F0348262D840F216329342CE
:102EA80000F0F08125D840F21332934200F0CF8130
:102EB800B3F5457F0AD2002B00F0B38140F21232FD
:102EC800934200F0B98100202860B3E100F0CD8181
:102ED80040F215329342F6D100240FB12B793B55BD
:102EE800013402234C452B71C0F0CD8140F21633DA
:102EF8009EE140F21932934200F0DD8114D840F28D
:102F08001732934200F0CA81B3F5467FDBD1002423
:102F18000FB12B793B55013400234C452B71C0F080
:102F2800CB8140F2193383E1B3F5487F00F0DB81B0
:102F380040F221329342C6D100240FB12B793B5580
:102F4800944B30461978FFF759FF934B01341860BA
:102F58004C4503782B71C0F0D48140F2263367E1E9
:102F680040F23332934200F00982B3F54D7F38D2F4
:102F7800B3F54B7F00F0DF811CD840F22732934233
:102F880000F0CA81B3F54A7F9DD100240FB12B7997
:102F98003B55814B327D1B681B789A4204F1010432
:102FA80040F0E28102234C452B71C0F0C5814FF4FB
:102FB8004B733DE140F22D32934200F0C88140F25C
:102FC8002E3293427FF47FAF00240FB12B793B550B
:102FD80001340023A1452B7100F2F0814FF44F73A7
:102FE80026E1B3F54F7F00F0E88106D8B3F54D7FB1
:102FF80000F0D08140F23532E3E740F242329342AA
:1030080000F0F08100F2FA8140F2413293427FF4FD
:103018005AAF00240FB12B793B55013424234C457A
:103028002B71C0F0E08140F2423301E140F25632A8
:10303800934200F05A826AD8B3F5537F00F01D829C
:1030480032D840F24932934200F0FE8115D840F25E
:103058004532934200F0EB81B3F5527F7FF433AFF2
:1030680000240FB12B793B55013424234C452B7197
:10307800C0F0EB8140F24933DAE040F24A32934241
:1030880000F0EE8140F24B3293427FF41CAF0024F3
:103098000FB12B793B550134B37D2B714C45C0F0F2
:1030A800ED814FF45373C3E040F25132934200F084
:1030B800038215D840F24F32934200F0EA81B3F50B
:1030C800547F7FF400AF00240FB12B793B550134B6
:1030D80002234C452B71C0F0F08140F25133A7E038
:1030E80040F25232934200F0F38140F2553293425B
:1030F8007FF4E9AE00240FB12B793B55013424232A
:103108004C452B71C0F0F28140F2563390E040F20A
:103118007232934200F0378242D840F259329342D9
:1031280000F0FC8115D840F25732934200F0E98153
:10313800B3F5567F7FF4C7AE00240FB12B793B550A
:103148000134B37D2B714C45C0F0E98140F259330D
:103158006EE040F26D32934200F0088240F26E3227
:1031680093427FF4B0AE00240FB12B793B550B4B43
:103178001978094B1868FFF755FE013403782B714D
:103188004C45C0F0018240F2723351E0BC6C002023
:10319800AFCA0E00BB6C0020C06C0020BD6C0020C4
:1031A80040F28332934200F01382B3F5617F14D268
:1031B80040F27732934203D0B3F55F7F7FF483AE5A
:1031C80000240FB12B793B5501344023A1452B71C5
:1031D80000F2FF8140F283332AE040F289329342C1
:1031E80000F00D8240F28E32934200F00882B3F56F
:1031F800617F7FF468AE00240FB12B793B55AB4B50
:10320800327D1B681B789A4204F1010440F0ED817D
:10321800336A4C451B782B71C0F0F28140F2893338
:1032280006E008232B71B9F1000F05D140F21233E3
:103238002B600120BDE8F8830FB12B793B700B237D
:10324800B9F1010F2B710ED840F21333F0E70024C7
:103258000FB12B793B550134337D2B714C4505D388
:103268004FF44573E4E70124F2E700240FB12B790A
:103278003B55013402234C452B71FFF42EAE40F22E
:103288001533D5E700240FB12B793B5501340223C0
:103298004C452B7103D340F21733C9E700240FB113
:1032A8002B793B550134737E2B714C45FFF430AEBE
:1032B8004FF44673BCE700240FB12B793B557C4B88
:1032C800002201341A707A4B1A7898F800309A4222
:1032D80002D340F29933ABE70923A1452B7103D8F8
:1032E8004FF44873A4E700240FB12B793B55013400
:1032F80004234C452B71FFF420AE40F2213397E7AD
:1033080000240FB12B793B55013400234C452B7118
:1033180003D340F227338BE700240FB12B793B55B9
:10332800624B1B6801345B782B714C45FFF42EAE61
:103338004FF44A737CE700240FB12B793B550134D5
:1033480002234C452B7103D340F22D3370E7002440
:103358000FB12B793B550134737E2B714C45FFF42B
:1033680034AE40F22E3363E7B27D9A421FD10A236E
:103378004C452B7103D340F2333359E700240FB186
:103388002B793B55013400234C452B7103D34FF463
:103398004D734DE700240FB12B793B5501340023C1
:1033A8004C452B71FFF411AE40F2353340E74149EB
:1033B80040F2393001F01FFB0BE600240FB12B79E6
:1033C8003B553A4B327D1B681B789A4204F1010445
:1033D80040F0BC8005234C452B71FFF41BAE40F236
:1033E800413325E700240FB12B793B5501340023E5
:1033F8004C452B7103D340F2433319E700240FB136
:103408002B793B55013410234C452B7103D34FF4D2
:1034180051730DE700240FB12B793B55013401207E
:103428004C45287104D340F245332B6002E7002451
:103438000FB12B793B55013405234C452B71FFF413
:1034480010AE4FF45273F3E600240FB12B793B55BD
:10345800013401204C45287103D340F24A33E4E794
:1034680000240FB12B793B55013403234C452B71B4
:10347800FFF40EAE40F24B33DAE600240FB12B799D
:103488003B55013404234C452B7103D340F24F3391
:10349800CEE600240FB12B793B55013424234C454B
:1034A8002B71FFF411AE4FF45473C1E6C06C0020C9
:1034B800BB6C0020AFCA0E0000240FB12B793B551E
:1034C800013402234C452B7103D340F25233AFE64B
:1034D80000240FB12B793B55013405234C452B7142
:1034E800FFF409AE40F25533A2E600240FB12B7960
:1034F8003B55013406234C452B7103D340F2573317
:1035080096E600240FB12B793B550134337D2B719E
:103518004C45FFF412AE4FF4567389E600240FB100
:103528002B793B5501343E4B1B685A783D4B1A703A
:103538003D4B00221A703C4B1A783A4B1B789A4242
:103548000DD33A4A137801331370BCE6B27D9A4220
:10355800E9D0374940F2623001F04DFAE3E707233A
:10356800A1452B7103D840F26D3361E600240FB1F9
:103578002B793B55013405234C452B71FFF4F4ADF1
:1035880040F26E3354E600240FB12B793B55244B9F
:10359800327D1B681B789A4204F1010407D103238A
:1035A8004C452B71FFF40DAE40F2773340E6B27D07
:1035B8009A4207D102234C452B71FFF402AE4FF417
:1035C8005F7335E61A494FF4607001F014FAFCE5B0
:1035D80000240FB12B793B55013400234C452B7146
:1035E800FFF40AAE4FF4617322E6B27D9A4210D11D
:1035F80000234C452B7103D340F28E3318E6002488
:103608000FB12B793B550134074A137801331370F6
:1036180091E7074940F2923001F0EDF9F4E700BF75
:10362800C06C0020BA6C0020BD6C0020BB6C002070
:10363800AFCA0E0010B5044618B906495F2001F05C
:10364800DAF923681BB90349602001F0D4F920682E
:103658000C3010BDAFCA0E000149522001F0CBB9A1
:10366800AFCA0E0070B50D46044608B9FFF7F4FF5F
:10367800E36923B129462046BDE87040184770BD6C
:1036880010B5044608B9FFF7E7FF2046FFF7D2FF59
:103698000023838283610362C0E91B33C0E91D33C1
:1036A80000F12803836610BD2DE9F0430E4689B06A
:1036B800054620B99E4940F2DD2001F09CF926B963
:1036C8009B4940F2DE2001F096F933780E2B21D881
:1036D800DFE803F00B080B0B2010BE202008200B9E
:1036E8000B0B0B002846FFF7CBFF0024204609B040
:1036F800BDE8F08325B98E494FF4E47001F07BF9F9
:103708007278D1094FEA52133AD013F0030303D069
:10371800012B25D00624E9E702F01F02012AF9D17E
:10372800B478062CF6D105A8039300F043FD03AB4B
:10373800F27831790093074603462846FEF74AFF98
:103748000528D3D0039B3F2B03D97949C92001F021
:1037580052F9039A3946701C00F07EFA0446C5E710
:103768000DB9FFF779FF2846FFF764FFB378212BDF
:10377800D0D1B6F80720072ACCD100F10C01EAE72E
:10378800012BC7D10DB9FFF767FF2846FFF752FF96
:10379800B378202B074632D0222BBBD1B6F807309E
:1037A800002BB7D1037DB6F80340848203F00103F0
:1037B80004F00104A34298D0A4B2002C0CBF03214A
:1037C80002212846FFF74EFF002C8ED10121284602
:1037D800FFF714FB2146FFF725FB007803F00EFAEC
:1037E8002846FFF733FB03F009FA07F12803BC6109
:1037F8003C62C7E91B44C7E91D44BB6676E7B6F8D7
:103808000730072B86D10DB9FFF726FF2846FFF7AB
:1038180011FFB3780370B6F80730DBB243700024A9
:103828000230CDE905032046079400F04FFD2046FD
:1038380005A9FFF7E9F8044630B93E4B03A9CDE9DD
:10384800033500F0F7F90446002000F04FFD4DE77E
:1038580000212846FFF7D2FA0021FFF7E3FAB378F0
:1038680002789A423FF441AF1B06F4780AD524B196
:10387800032C3FF43AAF032438E701212846FFF729
:10388800F1FE33E7012C3FF430AFF1D20DB9FFF769
:10389800E3FE2846FFF7CEFE06462846FFF7D6FA8F
:1038A800254BF7698046CDE90536B7B9336F346AD9
:1038B800F766C6E91C736CB106F1200103C906F16D
:1038C800180383E80300376205A94046FFF7B0F8FC
:1038D800044600E0B4610021D0E7D6F87890B069DA
:1038E8004F4528BF4F4606F128043A46214608F0BE
:1038F80036F9336F3B447367A9EB0703F366336A02
:1039080000223C443267B466002B3BD006F1200904
:1039180099E8030006F1180787E8030014463262A5
:10392800F36EB06953B9B469002CCDD1D3E700BFA9
:10393800AFCA0E0091390E00D52D0E00F269B16E96
:103948009A4215D808F00BF9F369F26E7367D21A28
:10395800F266B26E1A44B26600212846FFF782FE6C
:10396800336A7BB199E8030087E803003462D7E73C
:103978001A4608F0F4F8F26EF36932679B1AF3619D
:10398800B3691344B361CEE710B5044660B908467D
:10399800FFF750FE0378202B08D1811C07220C303A
:1039A80008F0DDF8204610BD0320FCE70620FAE702
:1039B8007FB5144606460D46FFF73CFE838ADA07B4
:1039C80013D501213046FFF719FA0021FFF72AFA2B
:1039D800A30600780CBF0123002301A9CDE90154F7
:1039E8000393FFF711F804B070BD0820FBE700004F
:1039F8002DE9F341804616460F4621B9294940F280
:103A0800D63000F0F8FF4046FFF714FE838ADB0744
:103A1800044644D5002000F059FCA569002D36D194
:103A2800E36EB34212D33246A16E384608F097F8D7
:103A3800E36E66679B1BE366A36E3344A3660020B0
:103A480000F054FC284602B0BDE8F081C4E90676CF
:103A58004046FFF7FBF9144BE26E0646CDE9003409
:103A680062B1A16EA06908F07AF8E36EE269D21A31
:103A7800E261A269C4E91B531A44A261694630464F
:103A8800FEF7D6FF002814BF05469225D7E7236A1C
:103A98001BB9C4E908769225D1E71125CFE7082597
:103AA800D0E700BFAFCA0E00D52D0E00002070472A
:103AB80010B5044620B9044940F2432000F09BFFAA
:103AC8002368186810BD00BFC4C90E002DE9F04F67
:103AD8004B6887B080460C4693465BB90868FFF789
:103AE800E7FF38B9A5682DB9C8E90055284607B0D9
:103AF800BDE8F08FBBF1400F04D938494FF4CB70C3
:103B080000F079FF02F01AFDE76802905F453B4636
:103B180028BF5B4601934FF0000904F110034E469D
:103B280001250393019B002B31D0A368019A61689A
:103B380093429A4628BF924600292CD0029B5246AF
:103B4800981908F00CF800236360E268A368A2EBF8
:103B58000A02E260019AA3EB0A03A2EB0A02A3603D
:103B68000192564433B9B9F1000F03D02068FFF72A
:103B78009FFF2060E368002B2ED0A368002BD1D1D3
:103B88002268B2B9626016B1B34588BF0025029BAE
:103B9800C8E90036AAE7002BD7D02168029A4B68FB
:103BA8000398D3F8049032445346C8474FF00109AC
:103BB800CBE70DF1180A4AF8083D21684B685B68A5
:103BC80000221F4650460123B84708B92061A9E7DB
:103BD800A3680133A360F0E71D46A3E762CB0E009C
:103BE800084B1A7882420CD0052818BF064A18706C
:103BF80018BF137805481CBF23F002031370FEF7A3
:103C0800B7BF7047D06C0020EC6C002018CB0E00BA
:103C180008B50020FEF784FE8020BDE80840FEF7C6
:103C28007FBE08B50020FEF78BFE8020BDE8084067
:103C3800FEF786BE38B505460C4602F0EFFEA842F0
:103C480005BFD4E90001034B1020C3E9000108BFF8
:103C5800002038BDF06C00207FB5C38893421D4614
:103C680028BF154693420E46144620D9802002F0FC
:103C780083FBB4FBF0F303FB1040B0FA80F040097B
:103C880003900020CDE9016500F020FB01A9802008
:103C9800FEF7BAFE044620B906498020FFF7CAFF9E
:103CA8000446002000F022FB204604B070BD00202E
:103CB800E6E700BF4CCB0E002DE9F04F0C78062C40
:103CC80089B006460D4600F03C8221D8022C52D01D
:103CD80003D8012C3DD0062454E0032C3DD0052CFC
:103CE800F9D10DF115008DF8144002F02BFEAC4A05
:103CF800002313609DF8153003F01F039346032B30
:103D080000F2BC81DFE813F042006A01B1010D0145
:103D18000D2C00F0038211D80B2C00F0F4810C2C30
:103D2800D9D1A04B1B78012B04D09F4940F24240C7
:103D380000F061FE0020FFF753FF1CE00E2C00F09E
:103D4800F581852CC7D1974B1B78032BC3D1042051
:103D580000E00320FFF744FFBDE7944800F032FF7E
:103D680030B1934B01221A60BFF36F8FBFF34F8FAF
:103D78008C4B1C780CB1002404E08B494FF485600F
:103D880000F039FE204609B0BDE8F08F26B9864913
:103D980040F24E3000F02FFE9DF81530C3F3411568
:103DA800002D40F0BE80DB099DF8161000F0AA80B7
:103DB800062918D0082900F09880002940F0B18021
:103DC8007C4C0222204607F0F3FE237843F00102E0
:103DD8002270794A1278950744BF43F00303237091
:103DE800022274490AE09DF81830022B0CD0032BEC
:103DF80071D0012B40F09580704912220DF1150009
:103E0800FFF72AFF044636E0BDF81B70DFF898A1DB
:103E1800092F28BF0927FEF795FD4FF0090804462A
:103E280074BB644C66493A46204607F098FE2571F3
:103E3800A4F80280FEF76CFD18B1E37943F0200383
:103E4800E371FEF77FFD5F4BC3E900049F60BDF897
:103E58001B20DA60002000F039FA5B498020FEF769
:103E6800E7FD044620B959498020FFF7E3FE0446E0
:103E7800002000F03BFA062C53D0002C65D05CE003
:103E8800636823B951464FF42F7000F0B4FD63689E
:103E98005B6823B9514640F2BD2000F0ACFD0DF13E
:103EA8002009002649F8146D019663685B680022B2
:103EB8001E46214601234846B047019B40B9984415
:103EC800237A20461D44FFF7F3FDEDB20446A7E729
:103ED80001330193E9E7BDF819109DF8170000F0C8
:103EE800C1F90146E8B1027888E72E4A1278052A16
:103EF80003D1304A1370012273E7042A11D12D4BE4
:103F08001D70F8E7013908290BD8DFE801F02C0A01
:103F18000E0A050A0A0A3900234940F2723000F0F5
:103F28006AFD05A8FEF75CFD9DE0BDF81730012B82
:103F3800F7D1FEF7EDFC18B90F2402F06CFD21E76C
:103F48001D4A137843F002031370DBF80040002C7D
:103F580000F01F8102F062FD044600287FF40BAFD9
:103F680002F016FD0EE7BDF81730012BD9D1FEF788
:103F7800CFFC0028E0D0104A137823F00203E3E7CF
:103F8800084B1B78043B012B01D90824D5E79DF881
:103F98001730EBB9FEF7D6FD0420FFF721FED4E772
:103FA800F06C0020D06C002062CB0E00F86C002072
:103FB8005C700240FC6C0020EC6C002038CB0E00DA
:103FC80019CB0E00D46C0020A4CB0E004CCB0E00F5
:103FD800012B41D1FEF796FD0520DEE703A99DF8E8
:103FE8001900FEF7B5FC064608B91024A5E705AA8E
:103FF8009DF80C10FEF7CEFC062804467FF43DAF72
:104008009DF8152012F0600F97D1644B9DF80C10A5
:1040180018789DF81630D50915D073B10A2B8CD1B4
:104028000528B2D13046FEF767FD5D492A4608707B
:104038000DF11500FFF710FE15E00528A5D1584928
:104048000B800222F4E70B2B7FF477AF05289CD175
:10405800BDF81730FF2B01D907246EE79DF817200C
:104068003046FEF7F9FC044607E79DF819000407F7
:1040780006D19DF8153013F0600F09D006245CE7CF
:1040880005A9FEF78AFC062804467FF4F6AEF0E799
:104098009DF81620414B9DF819401B78012A1ED027
:1040A80012D3032AEAD104F00F02072AE6D8BDF892
:1040B80017100029E2D1052B02D0002A7FF465AF42
:1040C800204602F0DFFB40E7052B02D021077FF4F2
:1040D8005CAF204602F0F4FB31490880B1E704F0F8
:1040E8000F02072ACAD8BDF817100029C6D1052B18
:1040F80002D0002A7FF449AF204602F0FFFB204699
:1041080002F0BCFF21E7254B1B78002B3FF433AEB0
:10411800244940F23C4000F06EFC2CE64FF080430E
:10412800D3F83834DA070AD5022004E61B4B1B788B
:10413800012B04D81B4940F2564000F05CFC0120DA
:10414800F9E5CB78032B3FF41DAE8B785B0604D0E2
:10415800144940F2654000F04EFC134EE87833688D
:10416800D3B10022326071689847044600287FF472
:10417800E4AE336823B1AB78002B7FF4FCADEFE6F7
:104188000A4B1B68082B04D1094B1B68002B3FF412
:10419800F2AD02F03DFCF5E50E24CEE6D06C002031
:1041A800FC6C002062CB0E00F06C00203001001087
:1041B8003401001008B1402303600148704700BF74
:1041C800FC6C002070B54FF0805286B0D2F8A83051
:1041D800D2F8A42000926FEA83436FEA934302ADBA
:1041E8009BB2094A094E0D21284607F094FC002489
:1041F800284607F032FD844201D306B070BD2B5D1E
:10420800A3550134F4E700BFACCB0E003C6D002091
:10421800F8B5124B53F820502B7813B9AE1C304622
:10422800F8BD0020FFF7C6FF0D4F0646013D0023ED
:1042380015F8012F5C1C2AB96400E4B244F44074F8
:104248003480ECE71E2B03D93946E62000F0D3FB77
:10425800E3B22A7826F81320EAE700BF48CC0E001C
:1042680002CC0E0008B9FFF7D3BF052807D8054AC6
:10427800105C20B1044B53F82030002BF3D1002000
:10428800704700BF60CC0E0048CC0E0072B6024AE0
:1042980013680133136070474C6D0020034A13689C
:1042A800013B136003B962B6704700BF4C6D002034
:1042B800EFF30583C3F308032BB9EFF31480C0436E
:1042C80000F00100704701207047000008B5FFF7B3
:1042D800EFFF012803D00449432000F08CFBBDE820
:1042E8000840FFF7D3BF00BF66CC0E0008B5FFF744
:1042F800DFFF012803D00449512000F07CFBBDE812
:104308000840FFF7CBBF00BF66CC0E00EFF3058374
:10431800C3F308038BB1103B5AB2002AADBF02F1B8
:10432800604303F00F03064A03F56143B4BFD05C52
:1043380093F800034009C0B270470F20704700BFD0
:1043480014ED00E030B53AB11368DB430B4C01447F
:10435800884204D1D84330BD4FF0FF33F6E710F858
:10436800012B5340082213F0010F14BF25460025E6
:10437800013A85EA5303F6D1EAE700BF2083B8ED96
:1043880070B50C461646054618B90549DF2000F0F9
:1043980032FB2B68C3F844430EB1C3F8044370BD25
:1043A800AFCD0E0037B50C46054618B90749F020C1
:1043B80000F021FB2B68185928B100221A511B590B
:1043C8000193019B012003B030BD00BFAFCD0E00AB
:1043D8002DE9F84388461446064618B9364955204B
:1043E80000F009FBB8F1000F03D13349562000F063
:1043F80002FB1CB93049572000F0FDFA73792F4AA7
:104408002F4F42F823402F4D2F4A07EBC303AD1A15
:104418001B79ED082D043BB145F002002B49FCF750
:10442800A7FC0820BDE8F883B8F80040D6F800904B
:10443800B4F5805F04D3264940F2231000F0DBFA7C
:10444800C9F8084598F8028096F90440B8F1070FB2
:1044580003D920496B2000F0CEFA002CB6BF1E4BC2
:1044680004F1604404F00F044FEA48185FFA88F832
:10447800AABF04F5614403F8048084F8008396F920
:10448800043003F01F025B099B0003F16043012124
:1044980003F5614301FA02F2C3F880211A607379C7
:1044A80007EBC30245F00300117147F833600B496D
:1044B800FCF75EFC0020B5E7AFCD0E00586D00207C
:1044C800506D00202CC40E0014C40E00B6CC0E0093
:1044D800D8CC0E0002CD0E0014ED00E02ECD0E005B
:1044E80010B5044618B90449872000F084FA2368F7
:1044F80001221A6010BD00BFAFCD0E0010B50446F2
:1045080018B904498D2000F076FA236801225A6010
:1045180010BD00BFAFCD0E002DE9F3410C46154686
:104528001E46804618B92D49AC2000F064FA4FF4B5
:104538008037A740A40004F5A072D8F8003092B2E2
:104548000021C3F80873C3F8487399501C449A585B
:10455800019225F07F45019AD4F84025C4F84055CA
:10456800D3F80435D31A23F07F43012B0FD11C4B0A
:104578001C481D49C01AC008000440F00400FCF79C
:10458800F7FB1A4B4FF4046043F001039847D8F83F
:104598000010C1F84473D1F80435E81A20F07F42BE
:1045A80026F07F46000248BF42F07F42764296429C
:1045B80010DA022A0EDC0A4A0A480D49801AC00895
:1045C800000440F004002A46FCF7E0FB0D2002B08E
:1045D800BDE8F081C1F804730020F8E7AFCD0E0004
:1045E80014C40E002CC40E0040CD0E00B0CC0E003A
:1045F80071CD0E000A460221FFF7C2BE4FF4827148
:10460800FFF7D0BE890001F5A07189B2FFF7CABED5
:104618000368D3F80405704790F9043001215A095A
:1046280003F01F0301FA03F34032024941F8223034
:10463800704700BF00E100E0024B034A1B681068A6
:10464800184700BF586D0020506D002038B51B4C2E
:10465800A3781BB91A49502000F0CDF9194A1368FC
:10466800002B114625DC6078A388E27BB0B1607B23
:10467800851A9D420FDC002363706369A08003B133
:1046880005330B602179104800F0AEF9A0B1BDE800
:10469800384003F04FB81344A380F3E7A07B851894
:1046A8009D4204DB01236370A0802369E7E79B1A1E
:1046B800F2E7FF3B1360E5E738BD00BF5C6D002003
:1046C800F6CD0E00C86D00208C6D002070B5254C0D
:1046D800A37805461BB12449812000F08CF91DB947
:1046E8002149822000F087F96B78002B38D0AA780E
:1046F8009A4235D2EB78002B32D0EB68002B2FD0C2
:1047080054220021174807F053FA14222946174863
:1047180007F025FAEA78AB7815491344A3800023FB
:104728002370EB68A360A3622B69227B6362FF237B
:10473800012684F8202084F821300E4A0E4B66703A
:1047480001F11000E36200F0B3F850B9A670A9783F
:10475800EB780A481944C9B2BDE8704000F044B982
:10476800072070BD5C6D0020F6CD0E00686D00203E
:104778007C6D002055460E0040CE0E008C6D00204A
:10478800074B9B78012B10B5044603D00549B1208F
:1047980000F031F921460448BDE8104000F0E8B8BF
:1047A8005C6D0020F6CD0E008C6D0020014800F0F5
:1047B80003B900BF8C6D002038B5054CA2780546BA
:1047C8001AB90449C52000F016F9256138BD00BFA3
:1047D8005C6D0020F6CD0E0038B5054CA278054674
:1047E8001AB90449CD2000F006F9656138BD00BF4B
:1047F8005C6D0020F6CD0E000178036AC26821B115
:10480800C3F80C25002343707047C3F80825F9E75F
:1048180038B5037D0446002B3FD18369DBB9E378C3
:10482800A2789A421FD12078236AE168C0B1C3F800
:10483800081501230532637022612379022B0ED1FA
:10484800E369216918682246FDF760FD38B1BDE8C3
:10485800384002F06FBF98472379022BDFD038BD6C
:10486800C3F80C15E5E733B92046FFF7C5FFA37871
:1048780005332361E1E72578216AE06855B1C1F87D
:10488800080513FB02F31B12012105336170236134
:104898002175D2E7C1F80C05F3E7FFF7ADFF002358
:1048A8000375C27883789A1A53431B12E0E7000015
:1048B80003792DE9F04704460D4616461BB12849F1
:1048C8009D2000F098F8AB681BB925499E2000F0A0
:1048D80092F86B681BB922499F2000F08CF86B781E
:1048E8001BB91F49A02000F086F8A661AE682B7896
:1048F8002370C4E902666B6823626B78A370E8686A
:10490800E061184A0021FDF7E5FC074660B9DFF8C9
:104918005890DFF858A005464FF003083EB92046E6
:10492800FFF76AFF012323713846BDE8F087F307D4
:104938000DD52F2D0ED951464FF4E87000F05BF8D5
:1049480005F01F034A4603F5E07342F8238001355A
:104958007608E3E71F2DF3D82B464FF0A042F2E785
:1049680044CE0E0019480E00000300506DC80E001A
:10497800037970B504460D461BB90E49CD2000F0E9
:104988003AF8A3681D4203D10A49CE2000F033F853
:10499800022320462371E560FFF72EFFA168A66970
:1049A80029430025A1602575A561FFF731FFA661A0
:1049B800284670BD44CE0E0038B50379022B044654
:1049C80003D00849E32000F016F8E3691868FDF7FA
:1049D800C3FC05462046FFF70FFF0DB901232371DD
:1049E800284638BD44CE0E0083788B4226BFC1705E
:1049F80000200720704707B5ADF8000001916A460E
:104A0800002144F2020002F07FFE03B05DF804FBCF
:104A180010B561B1B2FBF3F403FB1424A4B244B99A
:104A2800C0E9001484608281C381204610BD0E2035
:104A3800FCE70920FAE737B550E8013F9DB2C48981
:104A480025448489A54228BF2D1B0489A54202BF9D
:104A5800BFF32F8F002207E0C5EA030540E80154A1
:104A6800002CE9D14FF001028DF803200193019B3E
:104A78009DF803200B6002F0FF0322B10B88006849
:104A8800184403B030BD1846FBE70A884B889A42A1
:104A980009D150E8012FC2EA024240E80123002B65
:104AA800F7D1012070470020704737B550E8023F22
:104AB8001FFAA3F5C488A54202BFBFF32F8F0022B7
:104AC8000DE0C48925448489A54228BF2D1BC3EA6B
:104AD800054540E80254002CE8D14FF001028DF85A
:104AE80003200193019B9DF803200B6002F0FF0354
:104AF80022B14B880068184403B030BD1846FBE764
:104B08000A884B889A4209D150E8022FC2EA224209
:104B180040E80223002BF7D101207047002070479E
:104B280050E8002F0B4640E8003C9CF0000FF7D1FE
:104B38001046704750E8002F42EA010340E8003C65
:104B48009CF0000FF6D11046704750E8003F43EA4A
:104B5800010240E8002C9CF0000FF6D11046704787
:104B680050E8002F02EA010340E8003C9CF0000FE7
:104B7800F6D11046704750E8003F03EA010240E8CA
:104B8800002C9CF0000FF6D11046704750E8003F0B
:104B980003EB010240E8002C9CF0000FF6D1104610
:104BA800704750E8003FA3EB010240E8002C9CF05E
:104BB800000FF6D1104670470121FFF7BBBF012156
:104BC800FFF7C3BF0021FFF7CBBF0021FFF7D3BF1B
:104BD80010B50446002834D003681BB91A49FF20D1
:104BE800FFF709FF636823B917494FF48070FFF78F
:104BF80002FFA36823B9144940F20110FFF7FBFE36
:104C0800E36823B910494FF48170FFF7F4FE238A53
:104C180023B90D4940F20310FFF7EDFED4E9012353
:104C280021689B1ADBB20A60013BDBB2FF2B2268CA
:104C380002D10020107110BD1168481C10600B7063
:104C4800F2E70E20F7E700BF95CE0E0038B5044610
:104C580020B911494FF49270FFF7CDFE0020FFF7FD
:104C680035FB226863681168994213D9481E1060A1
:104C780011F8015CE368218A01FB0535A368117905
:104C88001B1ADBB2994200D213710020FFF72EFBEA
:104C9800284638BD0025F8E795CE0E0038B50C46F5
:104CA800054620B90E4940F24710FFF7A4FE24B983
:104CB8000B494FF4A470FFF79EFE0020FFF706FB98
:104CC8002A681368591C1160EA68A41A2A8AB4FB76
:104CD800F2F41C700020BDE83840FFF707BB00BFA6
:104CE80095CE0E0010B5044618B906493120FFF7D5
:104CF80082FEA2682AB16369216820699847002367
:104D0800A36010BDD3CE0E000EB433B5059D044686
:104D180018B912494220FFF76EFE63691BB90F49A3
:104D28004320FFF768FE23681BB90C494420FFF7AE
:104D380062FE63681BB909494520FFF75CFE3DB177
:104D480002AA06AB42F8043D2946204600F06EF858
:104D580002B0BDE8304003B0704700BFD3CE0E00AC
:104D6800826830B40468551C8560A154D0E90132CA
:104D78009A4202D330BCFFF7B5BF30BC7047000081
:104D88002DE9F84F9946DDE90A43174682468846D9
:104D98000A460126BA420FD24E4538BF4E4613F096
:104DA800010B01D164B900240125B9F1010F1AD909
:104DB80009F1FF397D43F8E7B2FBF7F20136E9E77D
:104DC8009B070ED5B9F1000F0CBF30252025A64250
:104DD800EAD2013C29465046FFF7C2FF002CF6D123
:104DE800E1E72025F3E7B8FBF5F39F42E2D9DFF8C6
:104DF8003890B8FBF5F3504619F8031005FB1388F3
:104E0800FFF7AEFFB5FBF7F5002DF2D1BBF1000FB0
:104E180002D00CB1A64201D3BDE8F88F202150463C
:104E2800013CFFF79DFFF4E707CF0E002DE9F74F90
:104E38000E469046054620B9AC494FF49F70FFF7DF
:104E4800DAFD6B6923B9A9494FF4A070FFF7D3FDC8
:104E58002B6823B9A54940F24110FFF7CCFD6B68D8
:104E680023B9A2494FF4A170FFF7C5FD002E00F049
:104E78003A8116F8011B002958D0252940F0D18025
:104E8800002702E047F001071646324612F8013BB8
:104E98002D2BF7D0302B04D02B2B05D147F004074E
:104EA800F2E747F00207EFE700242A2B06F1010298
:104EB8001BD1D8F80030191D1B68C8F800101C4415
:104EC800164633782E2B1CD101364FF0000A314696
:104ED80011F8012BA2F13000092814D80A2303FB8A
:104EE8000A23A3F1300A0E46F1E712F8013CA3F1B8
:104EF80030010929E5D80A2101FB0434303C164663
:104F0800D3E74FF0000A324612F8011B01F0FB000C
:104F180068281646F8D0692916D054D8582970D070
:104F28000ED825297DD03378002BA2D12B7B002BDE
:104F380000F0D980284603B0BDE8F04FFFF7D2BE95
:104F4800632968D06429EED1D8F80020D2F80090FF
:104F5800111D89EAE972C8F80010A2EBE9724FF056
:104F6800010B092A61DCD34538BFD3462CB1B9F10E
:104F7800000F01DB790700D5013CBA0702D5BAF169
:104F8800000F04D0FB0702D4002C54D10024B9F13F
:104F9800000F58DAC9F100092D212846FFF7E0FE75
:104FA80007F00302022A05D1BAF1000F02D1002C42
:104FB8004DD10024CDE9004753460A2249462846E8
:104FC800FFF7DEFEAFE7732954D016D87029AAD1AF
:104FD800D8F800301A1DC8F80020302128461C686F
:104FE800FFF7BEFE78212846FFF7BAFE0022082305
:104FF800CDE9003221461022E1E775292FD0782922
:1050080091D1D8F800100A1DC8F80020CDE9004752
:10501800534610222CE0D8F800301A1D1978C8F829
:1050280000202846FFF79CFE7DE70A230BF1010BC1
:1050380092FBF3F295E7A345A9D220212846013C2B
:10504800FFF78EFEA0E77807AAD52B21A5E7A34591
:10505800B0D230212846013CFFF782FEA7E7D8F8F6
:105068000010CDE900470A1DC8F8002053460A225F
:105078000968A4E7D8F800301A1DC8F80020F90715
:10508800D3F8009012D54F46A7EB090B17F8011B70
:1050980041B9A345BFF447AF20212846013CFFF79B
:1050A8005FFEF6E72846FFF75BFEEDE7B9F1000F74
:1050B80017D0484606F0D1FD0746BC4200D954B97E
:1050C80009F1FF3919F8011F00293FF42CAF2846D0
:1050D800FFF746FEF6E720212846013CFFF740FE91
:1050E800EBE74F46E9E703B0BDE8F08F17CF0E00B6
:1050F80007B50B4688B9124B1248134AC01A0E233B
:10510800C0080093114B0004114940F00100FBF75F
:1051180047FE0E2003B05DF804FB4BB9084B094865
:105128000C4AC01AC0080E2300930004074BEBE793
:1051380003601B68114603B05DF804EB184700BF15
:1051480014C40E009CC40E00FFCF0E0052CF0E00F8
:1051580004D00E007BD00E002DE9F34188B93D4BF9
:105168003D483E4AC01AC0080E243D4B0094000436
:105178003C4940F00100FBF713FE204602B0BDE8B1
:10518800F0814AB9334B3448374AC01AC0080E2454
:1051980000040094324BEBE7D0F800C0BCF1000FDC
:1051A80009D12C4B2C48314AC01AC00808240004E5
:1051B80000942B4BDCE74BB9264B27482C4AC01AE6
:1051C800C008092400040094254BD1E74768D7F8A4
:1051D8000480B3FBF8F708FB17374FB11D4B1E4887
:1051E800244AC01AC0080924000400941C4BBFE7D5
:1051F8008F0709D0174B18481F4AC01AC008102437
:1052080000040094164BB3E712F0030F09D0114BBA
:1052180011481A4AC01AC008102400040094104B00
:10522800A6E7C768B9420BD34C1E05691C44AC42BB
:1052380006D8DCF80C40A44602B0BDE8F04160474F
:10524800044B05480E4AC01AC008102400040094F4
:10525800034B8DE714C40E009CC40E00FFCF0E0054
:1052680064CF0E0004D00E0081D00E0075D00E0061
:1052780034D00E0087D00E00B1D00E00C9D00E0079
:10528800ECD00E00F7B580B92A4B2B482B4AC01A30
:10529800C0080E242A4B009400042A4940F001005B
:1052A800FBF77EFD204603B0F0BDD0F800C0BCF18E
:1052B800000F09D11F4B2048234AC01AC0080824F0
:1052C800000400941E4BE8E74AB91A4B1A481F4AD3
:1052D800C01AC008092400040094194BDDE7476888
:1052E800D7F800E00EF1FF370F4209D0114B1248F2
:1052F800174AC01AC008102400040094104BCCE7C9
:10530800C768B9420CD34C1E05690EFB0244AC4277
:1053180006D8DCF81040A44603B0BDE8F04060476A
:10532800044B05480B4AC01AC00810240004009416
:10533800034BB2E714C40E009CC40E00FFCF0E004E
:1053480077CF0E0004D00E0075D00E0034D00E00BA
:105358008ACF0E00B0CF0E002DE9F04108B10368E6
:10536800C3B90E4E0E4B14229B1B0024B3FBF2F361
:10537800374602FB03F5A54201D1002008E03B595E
:1053880030190BB91434F6E7DB6998470028F9D0CF
:10539800BDE8F081DB69BDE8F0411847080000204E
:1053A8001C000020014B43600020704720D10E00F4
:1053B8000846704700207047024B1868003018BF35
:1053C80001207047CC6D002008B50248FFF7FDFBAF
:1053D800002008BDCC6D002008B510461A4606F01E
:1053E800BEFB002008BD00002DE9F041804686B0D4
:1053F80013480E4615461F46FFF7DEFB044630B13C
:10540800112018E006EB043001F064FE0134A542D7
:10541800F8D10B48FFF7D9FBD8F8083000246BB156
:10542800022268468DF80020CDE90146CDE9034502
:1054380005979847204606B0BDE8F0811846FAE778
:10544800CC6D00202DE9F041804686B012480F4609
:1054580016461D46FFF7B0FB0446D8B9AA083146E0
:10546800384601F04FFE0C48FFF7AFFBD8F808307C
:1054780073B101228DF800200C9A05926846CDE997
:105488000147CDE903659847204606B0BDE8F0819D
:105498001846FAE71120F8E7CC6D00202DE9F74F00
:1054A80099469DF83030019388461746054618B945
:1054B8002249B620FFF79FFAEA8895F805B00BFB5A
:1054C80002FBABF1040BCB4503D81C49C420FFF702
:1054D80092FA3E68B5F806A006EB09025A4509F1AA
:1054E800040188BFABEB0906B1FBFAF43E600AFB86
:1054F800141144B9AAEB0107B74228BF37462EB9A1
:1055080003B0BDE8F08F2D68013CF2E7019A043141
:1055180008EB0403681872B101463A461846F61BB0
:1055280006F01DFBB2453C442D6857464FF000017C
:1055380028BF3746E3E73A461946F0E74CD10E0054
:10554800FFF746BBF8B546790146721E05460023AB
:1055580093422D6803D30024A64202D8F8BD013334
:10556800F6E70F682846FFF799FB01343946F3E759
:105578002DE9F843068ACD1C0746FFF767FB043E72
:1055880035440446B5FBF6F5F0B14FF48073EDB23F
:105598008380C680013D076081464FF00008A8451A
:1055A80012D23846FFF752FB064648B163790133F9
:1055B800637108F10108C9F8000007608146EEE749
:1055C8002046FFF7BFFF34462046BDE8F883012197
:1055D8000430FFF7DBBA10B5012104460430FFF7A9
:1055E800E0FA10F0FF0F04D12046BDE81040FFF7A5
:1055F800A9BF10BD30B585B0144604AA002542F8ED
:10560800044D0095FFF74AFF039BA34203D00349CB
:10561800F620FFF7F0F905B030BD00BF4CD10E0001
:1056280030B585B0144604AA012542F8044D00950A
:10563800FFF734FF039BA34204D003494FF4807063
:10564800FFF7D9F905B030BD4CD10E0083680022B0
:105658005A609A60C3E90422DA601A607047000051
:1056680070B50D46064618B90A493A20FFF7C3F93E
:105678001DB908493B20FFF7BEF97468206818B1C6
:10568800B3682946984718B923682B60256070BD10
:105698002468F3E78AD10E0010B5044618B9054905
:1056A8005120FFF7A8F96368186808B102681A6002
:1056B80010BD00BF8AD10E0010B5044618B90349C1
:1056C8005D20FFF798F96368186810BD8AD10E004D
:1056D80010B5044618B903496320FFF78CF9206810
:1056E80010BD00BF8AD10E0038B50C46054618B962
:1056F8000A496920FFF77FF91CB908496A20FFF7B2
:105708007AF96B68186820B1A042026802D11A6061
:10571800012038BD03461046F5E700BF8AD10E00C8
:10572800F0B578B371B36BB300241C600A44DB276F
:105738004FF0DC0C4FF0DD0E1C688A4204F10105C5
:1057480000EB040604D11D60C02333700020F0BDB7
:105758000E78C02E05D0DB2E0CD01D600D780555B7
:1057680006E01D6007551C68651C1D6000F804C034
:105778000131E1E71D6006551C68651C1D6000F8D5
:1057880004E0F5E70E20E2E710B588B3D0E902326D
:1057980093422FD00278012A10D003D3022A21D0B5
:1057A800112012E0C02927D0DB2902D10123037080
:1057B800F6E742685C1C8460D154F1E7DC2905D027
:1057C800DD290AD0022303700B2010BD591C426842
:1057D8008160C021D1540023E9E7591C81604268E7
:1057E800DB21F7E7C029DBD1002303708360D7E70B
:1057F8000E20EAE70420E8E70020E6E738B5084C81
:1058080004F108030546002818BF1C4623682BB17D
:105818001A6822605B6828469847F7E738BD00BFDA
:10582800D86D002020B9054B01225A70FFF7E6BF5A
:10583800012802D1014A9070F8E77047D06D002026
:10584800014B1878704700BFD06D002038B5094C5F
:1058580023786BB908486360A3602361E36001F0B3
:105868007BFC054601F08EFC01232370284638BDD9
:105878008525FBE7D06D00202D580E0038B51B4C50
:105888002378054623B91A494FF49370FFF7B3F804
:10589800637803F0FF00ABB115B16B68002098473F
:1058A8000020FEF713FD6368002001336360FEF7F4
:1058B8001DFD6368C3B90E494FF4A170BDE83840B7
:1058C800FFF799B8FEF702FD25B1A26813463BB968
:1058D8002A60A5606368002BE5D101F077FCE2E758
:1058E8009D42F7D01B68F2E738BD00BFD06D00209D
:1058F800D5D10E0038B50F4C237823B90E4940F2A4
:105908004710FFF778F8636823B90B494FF4A47080
:10591800FFF771F80020FEF7D9FC6368013B63606C
:10592800656815B901F06AFC65700020BDE838406B
:10593800FEF7DCBCD06D0020D5D10E0008B5054BB4
:10594800002808BF184601F0ADFC10B9024B01222F
:105958001A7008BD18D20E00E46D002008B501F0D9
:10596800E0FCBDE8084001F0E3BC10B50446FFF7D1
:10597800F5FF204601F0C4FC01F0CCFC002010BD6E
:1059880000F1804000F51C3001230360BFF36F8FE6
:10599800BFF34F8F70470000054B1B68082B01BFF2
:1059A800044B1868B0FA80F0400918BF002070470F
:1059B8003001001034010010024A00231360024A2B
:1059C800137070471C7C0240E66D002007B5084A3A
:1059D80000231370074A019302A81370012300F8EB
:1059E800043D054B1B68984703B05DF804FB00BFF6
:1059F800E56D0020EC6F0020E86F00207047000084
:105A08009A42F8B506460D4617461C4604D2134975
:105A180040F2F310FEF7EFFF2B684BB103F0604341
:105A2800B3F1005F04D00D4940F2F510FEF7E3FF33
:105A380068682B68844297BFC6E900340022001BBF
:105A48001B198EBFC6E9003268602B60A74203D1DC
:105A5800003018BF0120F8BD0020FCE7C4D20E00BA
:105A68000B6803F06043B3F1005F70B506460C465F
:105A7800154604D00A4940F21A20FEF7BCFF6068B8
:105A88002368854228BF0546C6E900352368401BC0
:105A980060605A190030226018BF012070BD00BF35
:105AA800C4D20E000B6803F06043B3F1005F70B519
:105AB80006460D46144604D00C4940F23B20FEF73A
:105AC8009AFF69682A688C4228BF0C46002C14BFCC
